{
  "transactions": [
    {
      "hash": "0xccfdaefca63f8dec230b0ece70532e581b47bf980131f61bcef15a76f6dc6032",
      "transactionType": "CREATE",
      "contractName": "InsurancePoolV2",
      "contractAddress": "0x1b2d4802b57832b65f3e56b2299a1b5b3dc95813",
      "function": null,
      "arguments": null,
      "transaction": {
        "from": "0xf39fd6e51aad88f6f4ce6ab8827279cfffb92266",
        "gas": "0x25064a",
        "value": "0x0",
        "input": "0x60a060405230608052348015610013575f80fd5b5060017f9b779b17422d0df92223018b32b4d1fa46e071723d6817e2486d003becc55f0055610040610045565b6100f7565b7ff0c57e16840df040f15088dc2f81fe391c3923bec73e23a9662efc9c229c6a00805468010000000000000000900460ff16156100955760405163f92ee8a960e01b815260040160405180910390fd5b80546001600160401b03908116146100f45780546001600160401b0319166001600160401b0390811782556040519081527fc7f505b2f371ae2175ee4913f4499e1f2633a7b5936321eed1cdaeb6115181d29060200160405180910390a15b50565b608051611f9561011d5f395f818161114c0152818161117501526112b80152611f955ff3fe6080604052600436106101f1575f3560e01c80637257dfc911610108578063cad0b8db1161009d578063d5c6897d1161006d578063d5c6897d14610624578063da3a5f7214610643578063de54d42914610662578063e63ab1e914610677578063fbfa77cf14610697575f80fd5b8063cad0b8db14610564578063cc2a9a5b14610579578063d3e8948314610598578063d547741f14610605575f80fd5b806395501cbd116100d857806395501cbd146104e3578063a217fddf14610502578063ad3cb1cc14610515578063af02808a14610545575f80fd5b80637257dfc9146104725780637dc0d1d0146104915780638456cb59146104b057806391d14854146104c4575f80fd5b806336568abe116101895780633f4ba83a116101595780633f4ba83a146104005780634f1ef2861461041457806352d1902d146104275780635c975abb1461043b5780635cd8a76b1461045e575f80fd5b806336568abe1461038e578063377e1cc9146103ad5780633dadde20146103cc5780633e413bee146103e1575f80fd5b80631e1cc25f116101c45780631e1cc25f146102e457806323be345c14610317578063248a9ca31461034e5780632f2ff15d1461036d575f80fd5b806301ffc9a7146101f5578063078fa9bc146102295780630d551060146102575780630d8e6e2c146102b1575b5f80fd5b348015610200575f80fd5b5061021461020f366004611b7e565b6106b5565b60405190151581526020015b60405180910390f35b348015610234575f80fd5b506102495f80516020611f0083398151915281565b604051908152602001610220565b348015610262575f80fd5b50610294610271366004611ba5565b60066020525f908152604090208054600182015460029092015490919060ff1683565b604080519384526020840192909252151590820152606001610220565b3480156102bc575f80fd5b506040805180820190915260028152612b1960f11b60208201525b6040516102209190611bbc565b3480156102ef575f80fd5b506102497f2724e1c963eb1465b51230910d2ca7be74b71883f8cab72076d8c12e086c2b4881565b348015610322575f80fd5b50600154610336906001600160a01b031681565b6040516001600160a01b039091168152602001610220565b348015610359575f80fd5b50610249610368366004611ba5565b6106eb565b348015610378575f80fd5b5061038c610387366004611c23565b61070b565b005b348015610399575f80fd5b5061038c6103a8366004611c23565b61072d565b3480156103b8575f80fd5b5061038c6103c7366004611ba5565b610765565b3480156103d7575f80fd5b5061024960055481565b3480156103ec575f80fd5b50600454610336906001600160a01b031681565b34801561040b575f80fd5b5061038c610838565b61038c610422366004611c61565b61085a565b348015610432575f80fd5b50610249610879565b348015610446575f80fd5b505f80516020611f208339815191525460ff16610214565b348015610469575f80fd5b5061038c610894565b34801561047d575f80fd5b5061038c61048c366004611ba5565b610951565b34801561049c575f80fd5b50600354610336906001600160a01b031681565b3480156104bb575f80fd5b5061038c610b7e565b3480156104cf575f80fd5b506102146104de366004611c23565b610b9d565b3480156104ee575f80fd5b506102496104fd366004611d1d565b610bd3565b34801561050d575f80fd5b506102495f81565b348015610520575f80fd5b506102d7604051806040016040528060058152602001640352e302e360dc1b81525081565b348015610550575f80fd5b50600254610336906001600160a01b031681565b34801561056f575f80fd5b5061024960085481565b348015610584575f80fd5b5061038c610593366004611d46565b610c22565b3480156105a3575f80fd5b506105f36105b2366004611ba5565b60076020525f90815260409020805460018201546002830154600384015460048501546005909501546001600160a01b039094169492939192909160ff1686565b60405161022096959493929190611dea565b348015610610575f80fd5b5061038c61061f366004611c23565b610e4f565b34801561062f575f80fd5b5061038c61063e366004611d1d565b610e6b565b34801561064e575f80fd5b5061038c61065d366004611ba5565b610f1b565b34801561066d575f80fd5b5061024960345481565b348015610682575f80fd5b506102495f80516020611ec083398151915281565b3480156106a2575f80fd5b505f54610336906001600160a01b031681565b5f6001600160e01b03198216637965db0b60e01b14806106e557506301ffc9a760e01b6001600160e01b03198316145b92915050565b5f9081525f80516020611ee0833981519152602052604090206001015490565b610714826106eb565b61071d81610fb7565b6107278383610fc1565b50505050565b6001600160a01b03811633146107565760405163334bd91960e11b815260040160405180910390fd5b6107608282611069565b505050565b5f80516020611f0083398151915261077c81610fb7565b5f82815260076020526040812090600582015460ff1660038111156107a3576107a3611db6565b146107d5576005810154604051636a80bd1b60e01b81526107cc9160ff16905f90600401611e2e565b60405180910390fd5b80600401544211156107fa57604051634e2df5e560e11b815260040160405180910390fd5b60058101805460ff1916600117905560405183907f5d8d8e7ad8feb4bd333fe6788875531690f333312fc805e7520bdfd01384e285905f90a2505050565b5f80516020611ec083398151915261084f81610fb7565b6108576110e2565b50565b610862611141565b61086b826111e7565b61087582826111f1565b5050565b5f6108826112ad565b505f80516020611ea083398151915290565b60025f61089f6112f6565b8054909150600160401b900460ff16806108c75750805467ffffffffffffffff808416911610155b156108e55760405163f92ee8a960e01b815260040160405180910390fd5b805468ffffffffffffffffff191667ffffffffffffffff8316908117600160401b178255600854603455815460ff60401b191682556040519081527fc7f505b2f371ae2175ee4913f4499e1f2633a7b5936321eed1cdaeb6115181d29060200160405180910390a15050565b61095961131e565b5f80516020611f0083398151915261097081610fb7565b5f8281526007602052604090206001600582015460ff16600381111561099857610998611db6565b146109c2576005810154604051636a80bd1b60e01b81526107cc9160ff1690600190600401611e2e565b60058101805460ff191660029081179091558101545f548254604051632d182be560e21b8152600481018490526001600160a01b03918216602482015230604482015291169063b460af94906064016020604051808303815f875af1158015610a2d573d5f803e3d5ffd5b505050506040513d601f19601f82011682018060405250810190610a519190611e49565b506001546040516303eef79f60e31b8152306004820152602481018390526001600160a01b0390911690631f77bcf8906044015f604051808303815f87803b158015610a9b575f80fd5b505af1158015610aad573d5f803e3d5ffd5b5050600254845460018087015460405163286faa9160e11b81526001600160a01b03938416600482015260248101919091526044810191909152911692506350df552291506064015f604051808303815f87803b158015610b0c575f80fd5b505af1158015610b1e573d5f803e3d5ffd5b505083546040518481526001600160a01b0390911692508691507f786e090d783caced3baddcb29bd555ffb93faf484529ab87feab4ec4c48a81e19060200160405180910390a350505061085760015f80516020611f4083398151915255565b5f80516020611ec0833981519152610b9581610fb7565b610857611339565b5f9182525f80516020611ee0833981519152602090815260408084206001600160a01b0393909316845291905290205460ff1690565b5f610bdc61131e565b610be4611381565b610bef8484846113b1565b603480549192505f610c0083611e74565b9190505550610c1b60015f80516020611f4083398151915255565b9392505050565b5f610c2b6112f6565b805490915060ff600160401b820416159067ffffffffffffffff165f81158015610c525750825b90505f8267ffffffffffffffff166001148015610c6e5750303b155b905081158015610c7c575080155b15610c9a5760405163f92ee8a960e01b815260040160405180910390fd5b845467ffffffffffffffff191660011785558315610cc457845460ff60401b1916600160401b1785555b6001600160a01b038b161580610ce157506001600160a01b038a16155b80610cf357506001600160a01b038916155b80610d0557506001600160a01b038716155b80610d1757506001600160a01b038616155b15610d355760405163d92e233d60e01b815260040160405180910390fd5b610d3d61177b565b610d4561177b565b5f80546001600160a01b03199081166001600160a01b038e81169190911783556001805483168e83161790556002805483168d83161790556003805483168c831617905560048054909216908a16179055610da09087610fc1565b50610db85f80516020611ec083398151915287610fc1565b50610de37f2724e1c963eb1465b51230910d2ca7be74b71883f8cab72076d8c12e086c2b4887610fc1565b50610dfb5f80516020611f0083398151915287610fc1565b508315610e4257845460ff60401b19168555604051600181527fc7f505b2f371ae2175ee4913f4499e1f2633a7b5936321eed1cdaeb6115181d29060200160405180910390a15b5050505050505050505050565b610e58826106eb565b610e6181610fb7565b6107278383611069565b7f2724e1c963eb1465b51230910d2ca7be74b71883f8cab72076d8c12e086c2b48610e9581610fb7565b60408051606081018252848152602080820185815260018385018181525f8a81526006855286902094518555915190840155516002909201805460ff191692151592909217909155815185815290810184905285917f02fe13bf757a5fc73c5c42ef84a011acfdeb4739423187940acff084c70a9499910160405180910390a250505050565b5f610f2581610fb7565b600454610f3d906001600160a01b0316333085611783565b600154600454610f5a916001600160a01b039182169116846117b9565b60015460405163bad4a01f60e01b8152600481018490526001600160a01b039091169063bad4a01f906024015f604051808303815f87803b158015610f9d575f80fd5b505af1158015610faf573d5f803e3d5ffd5b505050505050565b6108578133611833565b5f5f80516020611ee0833981519152610fda8484610b9d565b611059575f848152602082815260408083206001600160a01b03871684529091529020805460ff1916600117905561100f3390565b6001600160a01b0316836001600160a01b0316857f2f8788117e7eff1d82e926ec794901d17c78024a50270940304540a733656f0d60405160405180910390a460019150506106e5565b5f9150506106e5565b5092915050565b5f5f80516020611ee08339815191526110828484610b9d565b15611059575f848152602082815260408083206001600160a01b0387168085529252808320805460ff1916905551339287917ff6391f5c32d9c69d2a47ea670b442974b53935d1edc7fd64eb21e047a839171b9190a460019150506106e5565b6110ea61186c565b5f80516020611f20833981519152805460ff191681557f5db9ee0a495bf2e6ff9c91a7834c1ba4fdd244a5e8aa4e537bd38aeae4b073aa335b6040516001600160a01b03909116815260200160405180910390a150565b306001600160a01b037f00000000000000000000000000000000000000000000000000000000000000001614806111c757507f00000000000000000000000000000000000000000000000000000000000000006001600160a01b03166111bb5f80516020611ea0833981519152546001600160a01b031690565b6001600160a01b031614155b156111e55760405163703e46dd60e11b815260040160405180910390fd5b565b5f61087581610fb7565b816001600160a01b03166352d1902d6040518163ffffffff1660e01b8152600401602060405180830381865afa92505050801561124b575060408051601f3d908101601f1916820190925261124891810190611e49565b60015b61127357604051634c9c8ce360e01b81526001600160a01b03831660048201526024016107cc565b5f80516020611ea083398151915281146112a357604051632a87526960e21b8152600481018290526024016107cc565b610760838361189b565b306001600160a01b037f000000000000000000000000000000000000000000000000000000000000000016146111e55760405163703e46dd60e11b815260040160405180910390fd5b5f807ff0c57e16840df040f15088dc2f81fe391c3923bec73e23a9662efc9c229c6a006106e5565b6113266118f0565b60025f80516020611f4083398151915255565b611341611381565b5f80516020611f20833981519152805460ff191660011781557f62e78cea01bee320cd4e420270b5ea74000d11b0c9f74754ebdbfc544b05a25833611123565b5f80516020611f208339815191525460ff16156111e55760405163d93c066560e01b815260040160405180910390fd5b5f838152600660205260408120600281015460ff166113e3576040516305e81bc560e21b815260040160405180910390fd5b805484111561141257805460405163e7f1f56d60e01b81526107cc918691600401918252602082015260400190565b6301e13380831115611444576040516308f08db360e11b8152600481018490526301e1338060248201526044016107cc565b600154604080516336190e4560e11b815290515f926001600160a01b031691636c321c8a9160048083019260209291908290030181865afa15801561148b573d5f803e3d5ffd5b505050506040513d601f19601f820116820180604052508101906114af9190611e49565b90505f6114d186838560010154670de0b6b3a764000092909102829004020490565b600880549192505f6114e283611e74565b9190505593506040518060c00160405280336001600160a01b0316815260200188815260200187815260200182815260200186426115209190611e8c565b81525f602091820181905286815260078252604090819020835181546001600160a01b0319166001600160a01b039091161781559183015160018084019190915590830151600283015560608301516003808401919091556080840151600484015560a08401516005840180549193909260ff199092169184908111156115a9576115a9611db6565b02179055509050508060055f8282546115c29190611e8c565b9091555050801561165a576004546115e5906001600160a01b0316333084611783565b5f54600454611601916001600160a01b039182169116836117b9565b5f5460405163d9454d5160e01b8152600481018390526001600160a01b039091169063d9454d51906024015f604051808303815f87803b158015611643575f80fd5b505af1158015611655573d5f803e3d5ffd5b505050505b60015460405163338a842b60e11b8152306004820152602481018890526001600160a01b03909116906367150856906044015f604051808303815f87803b1580156116a3575f80fd5b505af11580156116b5573d5f803e3d5ffd5b5050600254604051633980c24960e01b8152336004820152602481018b905260016044820152608060648201525f60848201526001600160a01b039091169250633980c249915060a4015f604051808303815f87803b158015611716575f80fd5b505af1158015611728573d5f803e3d5ffd5b5050604080518a8152602081018a90529081018490523392508691507f377904bad423a6ba6d312d0aec8f4e6ff68cc78a99aa124259f57ecb7d0623669060600160405180910390a35050509392505050565b6111e561191f565b611791848484846001611944565b61072757604051635274afe760e01b81526001600160a01b03851660048201526024016107cc565b6117c58383835f6119b1565b610760576117d683835f60016119b1565b6117fe57604051635274afe760e01b81526001600160a01b03841660048201526024016107cc565b61180b83838360016119b1565b61076057604051635274afe760e01b81526001600160a01b03841660048201526024016107cc565b61183d8282610b9d565b6108755760405163e2517d3f60e01b81526001600160a01b0382166004820152602481018390526044016107cc565b5f80516020611f208339815191525460ff166111e557604051638dfc202b60e01b815260040160405180910390fd5b6118a482611a13565b6040516001600160a01b038316907fbc7cd75a20ee27fd9adebab32041f755214dbc6bffa90cc0225b39da2e5c2d3b905f90a28051156118e8576107608282611a76565b610875611b0f565b5f80516020611f40833981519152546002036111e557604051633ee5aeb560e01b815260040160405180910390fd5b611927611b2e565b6111e557604051631afcd79f60e31b815260040160405180910390fd5b6040516323b872dd60e01b5f8181526001600160a01b038781166004528616602452604485905291602083606481808c5af1925060015f511483166119a0578383151615611994573d5f823e3d81fd5b5f883b113d1516831692505b604052505f60605295945050505050565b60405163095ea7b360e01b5f8181526001600160a01b038616600452602485905291602083604481808b5af1925060015f51148316611a075783831516156119fb573d5f823e3d81fd5b5f873b113d1516831692505b60405250949350505050565b806001600160a01b03163b5f03611a4857604051634c9c8ce360e01b81526001600160a01b03821660048201526024016107cc565b5f80516020611ea083398151915280546001600160a01b0319166001600160a01b0392909216919091179055565b60605f611a838484611b47565b9050808015611aa457505f3d1180611aa457505f846001600160a01b03163b115b15611ab957611ab1611b5a565b9150506106e5565b8015611ae357604051639996b31560e01b81526001600160a01b03851660048201526024016107cc565b3d15611af657611af1611b73565b611062565b60405163d6bda27560e01b815260040160405180910390fd5b34156111e55760405163b398979f60e01b815260040160405180910390fd5b5f611b376112f6565b54600160401b900460ff16919050565b5f805f835160208501865af49392505050565b6040513d81523d5f602083013e3d602001810160405290565b6040513d5f823e3d81fd5b5f60208284031215611b8e575f80fd5b81356001600160e01b031981168114610c1b575f80fd5b5f60208284031215611bb5575f80fd5b5035919050565b5f602080835283518060208501525f5b81811015611be857858101830151858201604001528201611bcc565b505f604082860101526040601f19601f8301168501019250505092915050565b80356001600160a01b0381168114611c1e575f80fd5b919050565b5f8060408385031215611c34575f80fd5b82359150611c4460208401611c08565b90509250929050565b634e487b7160e01b5f52604160045260245ffd5b5f8060408385031215611c72575f80fd5b611c7b83611c08565b9150602083013567ffffffffffffffff80821115611c97575f80fd5b818501915085601f830112611caa575f80fd5b813581811115611cbc57611cbc611c4d565b604051601f8201601f19908116603f01168101908382118183101715611ce457611ce4611c4d565b81604052828152886020848701011115611cfc575f80fd5b826020860160208301375f6020848301015280955050505050509250929050565b5f805f60608486031215611d2f575f80fd5b505081359360208301359350604090920135919050565b5f805f805f8060c08789031215611d5b575f80fd5b611d6487611c08565b9550611d7260208801611c08565b9450611d8060408801611c08565b9350611d8e60608801611c08565b9250611d9c60808801611c08565b9150611daa60a08801611c08565b90509295509295509295565b634e487b7160e01b5f52602160045260245ffd5b60048110611de657634e487b7160e01b5f52602160045260245ffd5b9052565b6001600160a01b03871681526020810186905260408101859052606081018490526080810183905260c08101611e2360a0830184611dca565b979650505050505050565b60408101611e3c8285611dca565b610c1b6020830184611dca565b5f60208284031215611e59575f80fd5b5051919050565b634e487b7160e01b5f52601160045260245ffd5b5f60018201611e8557611e85611e60565b5060010190565b808201808211156106e5576106e5611e6056fe360894a13ba1a3210667c828492db98dca3e2076cc3735a920a3ca505d382bbc65d7a28e3265b37a6474929f336521b332c1681b933f6cb9f3376673440d862a02dd7bc7dec4dceedda775e58dd541e08a116c6c53815c0bd028192f7b6268003b745c09aefb8f732a168ec71c3c87b50c0a4cfd1d104649ae3c04a4623b26bfcd5ed15c6e187e77e9aee88184c21f4f2182ab5827cb3b7e07fbedcd63f033009b779b17422d0df92223018b32b4d1fa46e071723d6817e2486d003becc55f00a2646970667358221220285d30f7a974953ecb8c9158355a45595b0b8e1b73161faf365b25b3fd08306264736f6c63430008180033",
        "nonce": "0x1694",
        "chainId": "0x66eee"
      },
      "additionalContracts": [],
      "isFixedGasLimit": false
    },
    {
      "hash": "0x364da22ab5f43db90bd343ceaf1811e0b37b5181d209fabbbd2c2f4b2b7a3599",
      "transactionType": "CALL",
      "contractName": null,
      "contractAddress": "0xf293ed1abd74d70a012c69b15f22c20df4c8858c",
      "function": "upgradeToAndCall(address,bytes)",
      "arguments": [
        "0x1b2d4802B57832b65f3E56b2299a1b5B3DC95813",
        "0x5cd8a76b"
      ],
      "transaction": {
        "from": "0xf39fd6e51aad88f6f4ce6ab8827279cfffb92266",
        "to": "0xf293ed1abd74d70a012c69b15f22c20df4c8858c",
        "gas": "0x11cd3",
        "value": "0x0",
        "input": "0x4f1ef2860000000000000000000000001b2d4802b57832b65f3e56b2299a1b5b3dc95813000000000000000000000000000000000000000000000000000000000000004000000000000000000000000000000000000000000000000000000000000000045cd8a76b00000000000000000000000000000000000000000000000000000000",
        "nonce": "0x1695",
        "chainId": "0x66eee"
      },
      "additionalContracts": [],
      "isFixedGasLimit": false
    },
    {
      "hash": "0xc0cb58a0ef434f3749d4eeeed47c5ffff6ae90b6afe6382d3cd310753cd001d6",
      "transactionType": "CALL",
      "contractName": null,
      "contractAddress": "0xf293ed1abd74d70a012c69b15f22c20df4c8858c",
      "function": "addPolicyType(uint256,uint256,uint256)",
      "arguments": [
        "0",
        "100000000000",
        "1000000000000000000"
      ],
      "transaction": {
        "from": "0xf39fd6e51aad88f6f4ce6ab8827279cfffb92266",
        "to": "0xf293ed1abd74d70a012c69b15f22c20df4c8858c",
        "gas": "0xc38c",
        "value": "0x0",
        "input": "0xd5c6897d0000000000000000000000000000000000000000000000000000000000000000000000000000000000000000000000000000000000000000000000174876e8000000000000000000000000000000000000000000000000000de0b6b3a7640000",
        "nonce": "0x1696",
        "chainId": "0x66eee"
      },
      "additionalContracts": [],
      "isFixedGasLimit": false
    },
    {
      "hash": "0x5566c0cc3fde2b88d8bfa75a7fa5402a0b9adba3364654d8d6616b87aaa33336",
      "transactionType": "CALL",
      "contractName": "MockERC20",
      "contractAddress": "0x0f5730cdde59df09b142072b9c9b5e4a1e894a7c",
      "function": "mint(address,uint256)",
      "arguments": [
        "0xf39Fd6e51aad88F6F4ce6aB8827279cffFb92266",
        "500000000000"
      ],
      "transaction": {
        "from": "0xf39fd6e51aad88f6f4ce6ab8827279cfffb92266",
        "to": "0x0f5730cdde59df09b142072b9c9b5e4a1e894a7c",
        "gas": "0x1068b",
        "value": "0x0",
        "input": "0x40c10f19000000000000000000000000f39fd6e51aad88f6f4ce6ab8827279cfffb92266000000000000000000000000000000000000000000000000000000746a528800",
        "nonce": "0x1697",
        "chainId": "0x66eee"
      },
      "additionalContracts": [],
      "isFixedGasLimit": false
    },
    {
      "hash": "0xd489eaf1c6ec810e64cd73aff39e4b5b6bcea4ae6256e1b2f57a3d82dc7fa4a0",
      "transactionType": "CALL",
      "contractName": "MockERC20",
      "contractAddress": "0x0f5730cdde59df09b142072b9c9b5e4a1e894a7c",
      "function": "approve(address,uint256)",
      "arguments": [
        "0xF293eD1ABd74D70A012c69b15f22C20Df4c8858C",
        "500000000000"
      ],
      "transaction": {
        "from": "0xf39fd6e51aad88f6f4ce6ab8827279cfffb92266",
        "to": "0x0f5730cdde59df09b142072b9c9b5e4a1e894a7c",
        "gas": "0xed5d",
        "value": "0x0",
        "input": "0x095ea7b3000000000000000000000000f293ed1abd74d70a012c69b15f22c20df4c8858c000000000000000000000000000000000000000000000000000000746a528800",
        "nonce": "0x1698",
        "chainId": "0x66eee"
      },
      "additionalContracts": [],
      "isFixedGasLimit": false
    },
    {
      "hash": "0x0dec96c4b95252573226792d67e509e5e8d22ac59fdd8b43e39cdde5d1bf69a9",
      "transactionType": "CALL",
      "contractName": null,
      "contractAddress": "0xf293ed1abd74d70a012c69b15f22c20df4c8858c",
      "function": "fundPool(uint256)",
      "arguments": [
        "500000000000"
      ],
      "transaction": {
        "from": "0xf39fd6e51aad88f6f4ce6ab8827279cfffb92266",
        "to": "0xf293ed1abd74d70a012c69b15f22c20df4c8858c",
        "gas": "0x274ac",
        "value": "0x0",
        "input": "0xda3a5f72000000000000000000000000000000000000000000000000000000746a528800",
        "nonce": "0x1699",
        "chainId": "0x66eee"
      },
      "additionalContracts": [],
      "isFixedGasLimit": false
    }
  ],
  "receipts": [
    {
      "status": "0x1",
      "cumulativeGasUsed": "0x1c3ce3",
      "logs": [
        {
          "address": "0x1b2d4802b57832b65f3e56b2299a1b5b3dc95813",
          "topics": [
            "0xc7f505b2f371ae2175ee4913f4499e1f2633a7b5936321eed1cdaeb6115181d2"
          ],
          "data": "0x000000000000000000000000000000000000000000000000ffffffffffffffff",
          "blockHash": "0x48e639384d8a2dd9dbc407567d2f3aed115e319d36418a54a50ff2c191407aee",
          "blockNumber": "0x1009b891",
          "blockTimestamp": "0x6a097b34",
          "transactionHash": "0xccfdaefca63f8dec230b0ece70532e581b47bf980131f61bcef15a76f6dc6032",
          "transactionIndex": "0x1",
          "logIndex": "0x0",
          "removed": false
        }
      ],
      "logsBloom": "0x00000000000000000000000000000000000000000000000000000000000000000000000800000000000000000000000000000000000000000000000000000080000000000000000000000000000000000000000000000000000000000000000000000000000000000000000000000000000000000000000000000000000000000000000000000000000800000000000000000000000080000000000000000000000000000000000000000000000000000000000000000000000000000000000000000000000000000000000000000000000000000004000000000000000000000000000000000000000000000000000000000000000000000000000004000000",
      "type": "0x2",
      "transactionHash": "0xccfdaefca63f8dec230b0ece70532e581b47bf980131f61bcef15a76f6dc6032",
      "transactionIndex": "0x1",
      "blockHash": "0x48e639384d8a2dd9dbc407567d2f3aed115e319d36418a54a50ff2c191407aee",
      "blockNumber": "0x1009b891",
      "gasUsed": "0x1c3ce3",
      "effectiveGasPrice": "0x1314470",
      "from": "0xf39fd6e51aad88f6f4ce6ab8827279cfffb92266",
      "to": null,
      "contractAddress": "0x1b2d4802b57832b65f3e56b2299a1b5b3dc95813",
      "gasUsedForL1": "0x17e",
      "l1BlockNumber": "0xa5d2bf",
      "timeboosted": false
    },
    {
      "status": "0x1",
      "cumulativeGasUsed": "0xc2d3",
      "logs": [
        {
          "address": "0xf293ed1abd74d70a012c69b15f22c20df4c8858c",
          "topics": [
            "0xbc7cd75a20ee27fd9adebab32041f755214dbc6bffa90cc0225b39da2e5c2d3b",
            "0x0000000000000000000000001b2d4802b57832b65f3e56b2299a1b5b3dc95813"
          ],
          "data": "0x",
          "blockHash": "0x3f93b705025d85ff05bd81dd4486b304b2243e8b97217591426e4f722d9fcc14",
          "blockNumber": "0x1009b898",
          "blockTimestamp": "0x6a097b36",
          "transactionHash": "0x364da22ab5f43db90bd343ceaf1811e0b37b5181d209fabbbd2c2f4b2b7a3599",
          "transactionIndex": "0x1",
          "logIndex": "0x0",
          "removed": false
        },
        {
          "address": "0xf293ed1abd74d70a012c69b15f22c20df4c8858c",
          "topics": [
            "0xc7f505b2f371ae2175ee4913f4499e1f2633a7b5936321eed1cdaeb6115181d2"
          ],
          "data": "0x0000000000000000000000000000000000000000000000000000000000000002",
          "blockHash": "0x3f93b705025d85ff05bd81dd4486b304b2243e8b97217591426e4f722d9fcc14",
          "blockNumber": "0x1009b898",
          "blockTimestamp": "0x6a097b36",
          "transactionHash": "0x364da22ab5f43db90bd343ceaf1811e0b37b5181d209fabbbd2c2f4b2b7a3599",
          "transactionIndex": "0x1",
          "logIndex": "0x1",
          "removed": false
        }
      ],
      "logsBloom": "0x00000000000000000000000000000000400000000000000000000000000000000000000000000000000000010000000000000000000000000000000000000000000000000000000000000000000002000000000000000000000000000000000000000000000000000000000000000000000000000080800000000000000020000000000000000000000800000000000000000000000180000000000000000000000000000000000000000000000000000000000000000000000000000000000000000020000000000000000000000000000000000004040000000000000000000000000000000000000000000000000000000000000000000000000000000000",
      "type": "0x2",
      "transactionHash": "0x364da22ab5f43db90bd343ceaf1811e0b37b5181d209fabbbd2c2f4b2b7a3599",
      "transactionIndex": "0x1",
      "blockHash": "0x3f93b705025d85ff05bd81dd4486b304b2243e8b97217591426e4f722d9fcc14",
      "blockNumber": "0x1009b898",
      "gasUsed": "0xc2d3",
      "effectiveGasPrice": "0x1312d00",
      "from": "0xf39fd6e51aad88f6f4ce6ab8827279cfffb92266",
      "to": "0xf293ed1abd74d70a012c69b15f22c20df4c8858c",
      "contractAddress": null,
      "gasUsedForL1": "0x12",
      "l1BlockNumber": "0xa5d2bf",
      "timeboosted": false
    },
    {
      "status": "0x1",
      "cumulativeGasUsed": "0x9375",
      "logs": [
        {
          "address": "0xf293ed1abd74d70a012c69b15f22c20df4c8858c",
          "topics": [
            "0x02fe13bf757a5fc73c5c42ef84a011acfdeb4739423187940acff084c70a9499",
            "0x0000000000000000000000000000000000000000000000000000000000000000"
          ],
          "data": "0x000000000000000000000000000000000000000000000000000000174876e8000000000000000000000000000000000000000000000000000de0b6b3a7640000",
          "blockHash": "0xbe0ae2c879c70e43037d7d66133bdd15bb8c5b8c8da3226b31b8a5d69382d8ae",
          "blockNumber": "0x1009b89d",
          "blockTimestamp": "0x6a097b39",
          "transactionHash": "0xc0cb58a0ef434f3749d4eeeed47c5ffff6ae90b6afe6382d3cd310753cd001d6",
          "transactionIndex": "0x1",
          "logIndex": "0x0",
          "removed": false
        }
      ],
      "logsBloom": "0x00000000000000000000000000000000000000000000000000000000000000000000000000000000000000010000000000000000000000000000000000000000000000000000000000000000000000000000000000000000000000000000000000000000020000000000000000000800000000000000000000000000000020000000000000000000000000000000000000000000000100000000000000000000000000000000000000000000000000000000000000100000000000000000000000000000000000000000000000000000000000000000000000000000000020000000000000000000010000000000000000000000001000000000000000000000",
      "type": "0x2",
      "transactionHash": "0xc0cb58a0ef434f3749d4eeeed47c5ffff6ae90b6afe6382d3cd310753cd001d6",
      "transactionIndex": "0x1",
      "blockHash": "0xbe0ae2c879c70e43037d7d66133bdd15bb8c5b8c8da3226b31b8a5d69382d8ae",
      "blockNumber": "0x1009b89d",
      "gasUsed": "0x9375",
      "effectiveGasPrice": "0x1312d00",
      "from": "0xf39fd6e51aad88f6f4ce6ab8827279cfffb92266",
      "to": "0xf293ed1abd74d70a012c69b15f22c20df4c8858c",
      "contractAddress": null,
      "gasUsedForL1": "0x10",
      "l1BlockNumber": "0xa5d2bf",
      "timeboosted": false
    },
    {
      "status": "0x1",
      "cumulativeGasUsed": "0xc86a",
      "logs": [
        {
          "address": "0x0f5730cdde59df09b142072b9c9b5e4a1e894a7c",
          "topics": [
            "0xddf252ad1be2c89b69c2b068fc378daa952ba7f163c4a11628f55a4df523b3ef",
            "0x0000000000000000000000000000000000000000000000000000000000000000",
            "0x000000000000000000000000f39fd6e51aad88f6f4ce6ab8827279cfffb92266"
          ],
          "data": "0x000000000000000000000000000000000000000000000000000000746a528800",
          "blockHash": "0xf97154403d232d7718826cefba16f4402e1a47edb2142e967375c400f3f37d12",
          "blockNumber": "0x1009b8a3",
          "blockTimestamp": "0x6a097b3c",
          "transactionHash": "0x5566c0cc3fde2b88d8bfa75a7fa5402a0b9adba3364654d8d6616b87aaa33336",
          "transactionIndex": "0x1",
          "logIndex": "0x0",
          "removed": false
        }
      ],
      "logsBloom": "0x00000000000000000000000000000000000000000200000000000000000000000000000000000000000000000000000000000000000000000000000000000000000000000000000000000008000000000000000000000000000000000000000000000000020000000000000100000800000000000000000000000010000000000000800000000000000000000000000000000000000000000000000000000000000000000000000000000000000000000010000000000000000000000000000000000002000000200000000000000000000000002000000000000000000020000000000000000000000000000000000000000000000000000000000000000000",
      "type": "0x2",
      "transactionHash": "0x5566c0cc3fde2b88d8bfa75a7fa5402a0b9adba3364654d8d6616b87aaa33336",
      "transactionIndex": "0x1",
      "blockHash": "0xf97154403d232d7718826cefba16f4402e1a47edb2142e967375c400f3f37d12",
      "blockNumber": "0x1009b8a3",
      "gasUsed": "0xc86a",
      "effectiveGasPrice": "0x13134d0",
      "from": "0xf39fd6e51aad88f6f4ce6ab8827279cfffb92266",
      "to": "0x0f5730cdde59df09b142072b9c9b5e4a1e894a7c",
      "contractAddress": null,
      "gasUsedForL1": "0xe",
      "l1BlockNumber": "0xa5d2c0",
      "timeboosted": false
    },
    {
      "status": "0x1",
      "cumulativeGasUsed": "0xb514",
      "logs": [
        {
          "address": "0x0f5730cdde59df09b142072b9c9b5e4a1e894a7c",
          "topics": [
            "0x8c5be1e5ebec7d5bd14f71427d1e84f3dd0314c0f7b2291e5b200ac8c7c3b925",
            "0x000000000000000000000000f39fd6e51aad88f6f4ce6ab8827279cfffb92266",
            "0x000000000000000000000000f293ed1abd74d70a012c69b15f22c20df4c8858c"
          ],
          "data": "0x000000000000000000000000000000000000000000000000000000746a528800",
          "blockHash": "0xc446060f23dbc94e7c5cfec03365313fe17649f14d165cb5bff7abc7c95c7c02",
          "blockNumber": "0x1009b8a7",
          "blockTimestamp": "0x6a097b3f",
          "transactionHash": "0xd489eaf1c6ec810e64cd73aff39e4b5b6bcea4ae6256e1b2f57a3d82dc7fa4a0",
          "transactionIndex": "0x1",
          "logIndex": "0x0",
          "removed": false
        }
      ],
      "logsBloom": "0x00000000000000000000000000000000000000000200000000000000000000000000000000010000000000000000000000000000000000000000000000200000000000000000000000000000000000000000000000000000000400000000000000000000000000000000000100000000000000000000000000000000000000000000800000000000000000000000000000000000000000000000000000000000020000000000000000000000000000000010000000000000000000000000000000000000000000200000000000000000000000002000000000000000000000000010000000000000000000000000000400000000000000000000000000000000",
      "type": "0x2",
      "transactionHash": "0xd489eaf1c6ec810e64cd73aff39e4b5b6bcea4ae6256e1b2f57a3d82dc7fa4a0",
      "transactionIndex": "0x1",
      "blockHash": "0xc446060f23dbc94e7c5cfec03365313fe17649f14d165cb5bff7abc7c95c7c02",
      "blockNumber": "0x1009b8a7",
      "gasUsed": "0xb514",
      "effectiveGasPrice": "0x131a230",
      "from": "0xf39fd6e51aad88f6f4ce6ab8827279cfffb92266",
      "to": "0x0f5730cdde59df09b142072b9c9b5e4a1e894a7c",
      "contractAddress": null,
      "gasUsedForL1": "0xd",
      "l1BlockNumber": "0xa5d2c0",
      "timeboosted": false
    },
    {
      "status": "0x1",
      "cumulativeGasUsed": "0x1c731",
      "logs": [
        {
          "address": "0x0f5730cdde59df09b142072b9c9b5e4a1e894a7c",
          "topics": [
            "0xddf252ad1be2c89b69c2b068fc378daa952ba7f163c4a11628f55a4df523b3ef",
            "0x000000000000000000000000f39fd6e51aad88f6f4ce6ab8827279cfffb92266",
            "0x000000000000000000000000f293ed1abd74d70a012c69b15f22c20df4c8858c"
          ],
          "data": "0x000000000000000000000000000000000000000000000000000000746a528800",
          "blockHash": "0xf43ca9b4d8829e87007eb73441ad6b7801e02bcca7c29dec2792466fefec4b70",
          "blockNumber": "0x1009b8ad",
          "blockTimestamp": "0x6a097b42",
          "transactionHash": "0x0dec96c4b95252573226792d67e509e5e8d22ac59fdd8b43e39cdde5d1bf69a9",
          "transactionIndex": "0x1",
          "logIndex": "0x0",
          "removed": false
        },
        {
          "address": "0x0f5730cdde59df09b142072b9c9b5e4a1e894a7c",
          "topics": [
            "0x8c5be1e5ebec7d5bd14f71427d1e84f3dd0314c0f7b2291e5b200ac8c7c3b925",
            "0x000000000000000000000000f293ed1abd74d70a012c69b15f22c20df4c8858c",
            "0x000000000000000000000000aaa36a7deb22fdd9e3a5613f378405655cacc7ba"
          ],
          "data": "0x000000000000000000000000000000000000000000000000000000746a528800",
          "blockHash": "0xf43ca9b4d8829e87007eb73441ad6b7801e02bcca7c29dec2792466fefec4b70",
          "blockNumber": "0x1009b8ad",
          "blockTimestamp": "0x6a097b42",
          "transactionHash": "0x0dec96c4b95252573226792d67e509e5e8d22ac59fdd8b43e39cdde5d1bf69a9",
          "transactionIndex": "0x1",
          "logIndex": "0x1",
          "removed": false
        },
        {
          "address": "0x0f5730cdde59df09b142072b9c9b5e4a1e894a7c",
          "topics": [
            "0xddf252ad1be2c89b69c2b068fc378daa952ba7f163c4a11628f55a4df523b3ef",
            "0x000000000000000000000000f293ed1abd74d70a012c69b15f22c20df4c8858c",
            "0x000000000000000000000000aaa36a7deb22fdd9e3a5613f378405655cacc7ba"
          ],
          "data": "0x000000000000000000000000000000000000000000000000000000746a528800",
          "blockHash": "0xf43ca9b4d8829e87007eb73441ad6b7801e02bcca7c29dec2792466fefec4b70",
          "blockNumber": "0x1009b8ad",
          "blockTimestamp": "0x6a097b42",
          "transactionHash": "0x0dec96c4b95252573226792d67e509e5e8d22ac59fdd8b43e39cdde5d1bf69a9",
          "transactionIndex": "0x1",
          "logIndex": "0x2",
          "removed": false
        },
        {
          "address": "0xaaa36a7deb22fdd9e3a5613f378405655cacc7ba",
          "topics": [
            "0xd7243f6f8212d5188fd054141cf6ea89cfc0d91facb8c3afe2f88a1358480142",
            "0x000000000000000000000000f293ed1abd74d70a012c69b15f22c20df4c8858c"
          ],
          "data": "0x000000000000000000000000000000000000000000000000000000746a528800",
          "blockHash": "0xf43ca9b4d8829e87007eb73441ad6b7801e02bcca7c29dec2792466fefec4b70",
          "blockNumber": "0x1009b8ad",
          "blockTimestamp": "0x6a097b42",
          "transactionHash": "0x0dec96c4b95252573226792d67e509e5e8d22ac59fdd8b43e39cdde5d1bf69a9",
          "transactionIndex": "0x1",
          "logIndex": "0x3",
          "removed": false
        }
      ],
      "logsBloom": "0x00000000000000000080000000000000000000000200000000000000000000000000000000010000000000000000000000000000000000000000004000200000000000000000000000000008000000000000000000000000000400000000001000000000000400000000000100000000000000000040000000000010000000000000800000000000000000000000000000000000000000000000000000000000020000000000000000000000000000000010000000000000000000000000000000000012000000200000000000000002000000002040008000000000000000000010000000000000000000000000000400000000000000000000000000000000",
      "type": "0x2",
      "transactionHash": "0x0dec96c4b95252573226792d67e509e5e8d22ac59fdd8b43e39cdde5d1bf69a9",
      "transactionIndex": "0x1",
      "blockHash": "0xf43ca9b4d8829e87007eb73441ad6b7801e02bcca7c29dec2792466fefec4b70",
      "blockNumber": "0x1009b8ad",
      "gasUsed": "0x1c731",
      "effectiveGasPrice": "0x1317350",
      "from": "0xf39fd6e51aad88f6f4ce6ab8827279cfffb92266",
      "to": "0xf293ed1abd74d70a012c69b15f22c20df4c8858c",
      "contractAddress": null,
      "gasUsedForL1": "0xb",
      "l1BlockNumber": "0xa5d2c0",
      "timeboosted": false
    }
  ],
  "libraries": [],
  "pending": [],
  "returns": {},
  "timestamp": 1779006276824,
  "chain": 421614,
  "commit": "c12ff70"
}